{
  "contractName": "Storage",
  "abi": [
    {
      "constant": true,
      "inputs": [],
      "name": "_initialized",
      "outputs": [
        {
          "name": "",
          "type": "bool"
        }
      ],
      "payable": false,
      "stateMutability": "view",
      "type": "function"
    },
    {
      "constant": true,
      "inputs": [],
      "name": "owner",
      "outputs": [
        {
          "name": "",
          "type": "address"
        }
      ],
      "payable": false,
      "stateMutability": "view",
      "type": "function"
    }
  ],
  "bytecode": "0x608060405234801561001057600080fd5b50610136806100206000396000f3fe608060405260043610610046576000357c0100000000000000000000000000000000000000000000000000000000900480633072cf601461004b5780638da5cb5b1461007a575b600080fd5b34801561005757600080fd5b506100606100d1565b604051808215151515815260200191505060405180910390f35b34801561008657600080fd5b5061008f6100e4565b604051808273ffffffffffffffffffffffffffffffffffffffff1673ffffffffffffffffffffffffffffffffffffffff16815260200191505060405180910390f35b600560149054906101000a900460ff1681565b600560009054906101000a900473ffffffffffffffffffffffffffffffffffffffff168156fea165627a7a72305820ecdc5aa88346e055146332c6c0500903cf6a3aac9c85ae8a51292ad7cc468a0e0029",
  "source": "pragma solidity 0.5.1;\n\ncontract Storage {\n    mapping(string => uint256) _uintStorage;\n    // _uintStorage[\"Number\"] = 10;\n    // _uintStorage[\"NrOfCats\"] = 200;\n    // _uintStorage[\"Version\"] = 2;\n\n    mapping(string => address) _addressStorage;\n    mapping(string => string) _stringStorage;\n    mapping(string => bool) _boolStorage;\n    mapping(string => bytes4) _bytesStorage;\n\n    address public owner;\n    bool public _initialized;\n\n}",
  "sourcePath": "/Users/aszucs/Desktop/Development/upgradeable-contract/proxyContract/contracts/Storage.sol",
  "compiler": {
    "name": "solc",
    "version": "0.5.1+commit.c8a2cb62.Emscripten.clang"
  },
  "schemaVersion": "3.3.4",
  "updatedAt": "2021-04-18T15:50:19.388Z",
  "devdoc": {
    "methods": {}
  },
  "userdoc": {
    "methods": {}
  }
}